{
  "_format": "hh-sol-artifact-1",
  "contractName": "DAOMetra",
  "sourceName": "contracts/DAOMetra.sol",
  "abi": [
    {
      "inputs": [
        {
          "internalType": "address",
          "name": "_token",
          "type": "address"
        },
        {
          "internalType": "uint256",
          "name": "_sharePrice",
          "type": "uint256"
        }
      ],
      "stateMutability": "nonpayable",
      "type": "constructor"
    },
    {
      "anonymous": false,
      "inputs": [
        {
          "indexed": true,
          "internalType": "address",
          "name": "pauser",
          "type": "address"
        }
      ],
      "name": "DAOPaused",
      "type": "event"
    },
    {
      "anonymous": false,
      "inputs": [
        {
          "indexed": true,
          "internalType": "address",
          "name": "unpauser",
          "type": "address"
        }
      ],
      "name": "DAOUnpaused",
      "type": "event"
    },
    {
      "anonymous": false,
      "inputs": [
        {
          "indexed": true,
          "internalType": "uint256",
          "name": "proposalId",
          "type": "uint256"
        },
        {
          "indexed": false,
          "internalType": "string",
          "name": "title",
          "type": "string"
        },
        {
          "indexed": false,
          "internalType": "uint256",
          "name": "endTime",
          "type": "uint256"
        }
      ],
      "name": "ProposalCreated",
      "type": "event"
    },
    {
      "anonymous": false,
      "inputs": [
        {
          "indexed": true,
          "internalType": "uint256",
          "name": "proposalId",
          "type": "uint256"
        }
      ],
      "name": "ProposalExecuted",
      "type": "event"
    },
    {
      "anonymous": false,
      "inputs": [
        {
          "indexed": true,
          "internalType": "uint256",
          "name": "proposalId",
          "type": "uint256"
        }
      ],
      "name": "ProposalExpired",
      "type": "event"
    },
    {
      "anonymous": false,
      "inputs": [
        {
          "indexed": true,
          "internalType": "uint256",
          "name": "proposalId",
          "type": "uint256"
        },
        {
          "indexed": false,
          "internalType": "uint256",
          "name": "executionTime",
          "type": "uint256"
        }
      ],
      "name": "ProposalQueued",
      "type": "event"
    },
    {
      "anonymous": false,
      "inputs": [
        {
          "indexed": true,
          "internalType": "address",
          "name": "buyer",
          "type": "address"
        },
        {
          "indexed": false,
          "internalType": "uint256",
          "name": "amount",
          "type": "uint256"
        }
      ],
      "name": "SharesPurchased",
      "type": "event"
    },
    {
      "anonymous": false,
      "inputs": [
        {
          "indexed": true,
          "internalType": "address",
          "name": "voter",
          "type": "address"
        },
        {
          "indexed": true,
          "internalType": "uint256",
          "name": "proposalId",
          "type": "uint256"
        },
        {
          "indexed": false,
          "internalType": "bool",
          "name": "vote",
          "type": "bool"
        },
        {
          "indexed": false,
          "internalType": "uint256",
          "name": "weight",
          "type": "uint256"
        }
      ],
      "name": "VoteCast",
      "type": "event"
    },
    {
      "inputs": [],
      "name": "TIMELOCK_DELAY",
      "outputs": [
        {
          "internalType": "uint256",
          "name": "",
          "type": "uint256"
        }
      ],
      "stateMutability": "view",
      "type": "function"
    },
    {
      "inputs": [],
      "name": "VOTING_PERIOD",
      "outputs": [
        {
          "internalType": "uint256",
          "name": "",
          "type": "uint256"
        }
      ],
      "stateMutability": "view",
      "type": "function"
    },
    {
      "inputs": [],
      "name": "admin",
      "outputs": [
        {
          "internalType": "address",
          "name": "",
          "type": "address"
        }
      ],
      "stateMutability": "view",
      "type": "function"
    },
    {
      "inputs": [
        {
          "internalType": "string",
          "name": "title",
          "type": "string"
        },
        {
          "internalType": "string",
          "name": "description",
          "type": "string"
        },
        {
          "internalType": "address payable",
          "name": "recipient",
          "type": "address"
        },
        {
          "internalType": "uint256",
          "name": "tokenAmount",
          "type": "uint256"
        }
      ],
      "name": "createProposal",
      "outputs": [],
      "stateMutability": "nonpayable",
      "type": "function"
    },
    {
      "inputs": [],
      "name": "disableSale",
      "outputs": [],
      "stateMutability": "nonpayable",
      "type": "function"
    },
    {
      "inputs": [
        {
          "internalType": "uint256",
          "name": "proposalId",
          "type": "uint256"
        }
      ],
      "name": "executeProposal",
      "outputs": [],
      "stateMutability": "nonpayable",
      "type": "function"
    },
    {
      "inputs": [],
      "name": "getActiveProposals",
      "outputs": [
        {
          "internalType": "uint256[]",
          "name": "",
          "type": "uint256[]"
        }
      ],
      "stateMutability": "view",
      "type": "function"
    },
    {
      "inputs": [
        {
          "internalType": "address",
          "name": "member",
          "type": "address"
        }
      ],
      "name": "getVotingPower",
      "outputs": [
        {
          "internalType": "uint256",
          "name": "",
          "type": "uint256"
        }
      ],
      "stateMutability": "view",
      "type": "function"
    },
    {
      "inputs": [
        {
          "internalType": "uint256",
          "name": "",
          "type": "uint256"
        },
        {
          "internalType": "address",
          "name": "",
          "type": "address"
        }
      ],
      "name": "hasVoted",
      "outputs": [
        {
          "internalType": "bool",
          "name": "",
          "type": "bool"
        }
      ],
      "stateMutability": "view",
      "type": "function"
    },
    {
      "inputs": [],
      "name": "isPaused",
      "outputs": [
        {
          "internalType": "bool",
          "name": "",
          "type": "bool"
        }
      ],
      "stateMutability": "view",
      "type": "function"
    },
    {
      "inputs": [],
      "name": "pauseDAO",
      "outputs": [],
      "stateMutability": "nonpayable",
      "type": "function"
    },
    {
      "inputs": [
        {
          "internalType": "uint256",
          "name": "",
          "type": "uint256"
        }
      ],
      "name": "proposals",
      "outputs": [
        {
          "internalType": "string",
          "name": "title",
          "type": "string"
        },
        {
          "internalType": "string",
          "name": "description",
          "type": "string"
        },
        {
          "internalType": "uint256",
          "name": "yesVotes",
          "type": "uint256"
        },
        {
          "internalType": "uint256",
          "name": "noVotes",
          "type": "uint256"
        },
        {
          "internalType": "uint256",
          "name": "abstainVotes",
          "type": "uint256"
        },
        {
          "internalType": "bool",
          "name": "executed",
          "type": "bool"
        },
        {
          "internalType": "address payable",
          "name": "recipient",
          "type": "address"
        },
        {
          "internalType": "uint256",
          "name": "tokenAmount",
          "type": "uint256"
        },
        {
          "internalType": "uint256",
          "name": "createdAt",
          "type": "uint256"
        },
        {
          "internalType": "uint256",
          "name": "executionTime",
          "type": "uint256"
        },
        {
          "internalType": "bool",
          "name": "expired",
          "type": "bool"
        },
        {
          "internalType": "bool",
          "name": "queued",
          "type": "bool"
        }
      ],
      "stateMutability": "view",
      "type": "function"
    },
    {
      "inputs": [
        {
          "internalType": "uint256",
          "name": "amount",
          "type": "uint256"
        }
      ],
      "name": "purchaseShares",
      "outputs": [],
      "stateMutability": "nonpayable",
      "type": "function"
    },
    {
      "inputs": [
        {
          "internalType": "uint256",
          "name": "proposalId",
          "type": "uint256"
        }
      ],
      "name": "queueProposal",
      "outputs": [],
      "stateMutability": "nonpayable",
      "type": "function"
    },
    {
      "inputs": [],
      "name": "saleActive",
      "outputs": [
        {
          "internalType": "bool",
          "name": "",
          "type": "bool"
        }
      ],
      "stateMutability": "view",
      "type": "function"
    },
    {
      "inputs": [],
      "name": "sharePrice",
      "outputs": [
        {
          "internalType": "uint256",
          "name": "",
          "type": "uint256"
        }
      ],
      "stateMutability": "view",
      "type": "function"
    },
    {
      "inputs": [
        {
          "internalType": "address",
          "name": "",
          "type": "address"
        }
      ],
      "name": "shares",
      "outputs": [
        {
          "internalType": "uint256",
          "name": "",
          "type": "uint256"
        }
      ],
      "stateMutability": "view",
      "type": "function"
    },
    {
      "inputs": [],
      "name": "token",
      "outputs": [
        {
          "internalType": "contract DAOMetraToken",
          "name": "",
          "type": "address"
        }
      ],
      "stateMutability": "view",
      "type": "function"
    },
    {
      "inputs": [],
      "name": "totalShares",
      "outputs": [
        {
          "internalType": "uint256",
          "name": "",
          "type": "uint256"
        }
      ],
      "stateMutability": "view",
      "type": "function"
    },
    {
      "inputs": [],
      "name": "unpauseDAO",
      "outputs": [],
      "stateMutability": "nonpayable",
      "type": "function"
    },
    {
      "inputs": [
        {
          "internalType": "uint256",
          "name": "proposalId",
          "type": "uint256"
        },
        {
          "internalType": "bool",
          "name": "support",
          "type": "bool"
        },
        {
          "internalType": "bool",
          "name": "abstain",
          "type": "bool"
        }
      ],
      "name": "vote",
      "outputs": [],
      "stateMutability": "nonpayable",
      "type": "function"
    }
  ],
  "bytecode": "0x608060405234801561001057600080fd5b506040516119f03803806119f083398101604081905261002f91610072565b60018054336001600160a01b0319918216178255600080549091166001600160a01b0394909416939093179092556002556003805460ff191690911790556100ac565b6000806040838503121561008557600080fd5b82516001600160a01b038116811461009c57600080fd5b6020939093015192949293505050565b611935806100bb6000396000f3fe608060405234801561001057600080fd5b50600436106101375760003560e01c806394a14a34116100b8578063bb4d44361161007c578063bb4d443614610264578063ce7c2ac21461028d578063df133bca146102ad578063df48981a146102c0578063f851a440146102d3578063fc0c546a146102fe57600080fd5b806394a14a341461022a5780639612a7661461023d578063b1610d7e14610245578063b187bd261461024f578063b38435cc1461025c57600080fd5b80635584c4f9116100ff5780635584c4f9146101e25780635ba1c1a9146101f757806368428a1b146102015780637cdc2eb71461020e578063872697291461022157600080fd5b8063013cf08b1461013c5780630a4740ff146101705780630d61b5191461017a5780633a98ef391461018d57806343859632146101a4575b600080fd5b61014f61014a36600461133e565b610311565b6040516101679c9b9a9998979695949392919061139d565b60405180910390f35b6101786104a4565b005b61017861018836600461133e565b6104e3565b61019660045481565b604051908152602001610167565b6101d26101b236600461143a565b600760209081526000928352604080842090915290825290205460ff1681565b6040519015158152602001610167565b6101ea6107bc565b604051610167919061146a565b6101966201518081565b6003546101d29060ff1681565b61017861021c366004611551565b61094f565b61019660025481565b61017861023836600461133e565b610b43565b610178610dca565b61019662093a8081565b6008546101d29060ff1681565b610178610e71565b6101966102723660046115cf565b6001600160a01b031660009081526006602052604090205490565b61019661029b3660046115cf565b60066020526000908152604090205481565b6101786102bb366004611601565b610f20565b6101786102ce36600461133e565b611163565b6001546102e6906001600160a01b031681565b6040516001600160a01b039091168152602001610167565b6000546102e6906001600160a01b031681565b6005818154811061032157600080fd5b90600052602060002090600a020160009150905080600001805461034490611643565b80601f016020809104026020016040519081016040528092919081815260200182805461037090611643565b80156103bd5780601f10610392576101008083540402835291602001916103bd565b820191906000526020600020905b8154815290600101906020018083116103a057829003601f168201915b5050505050908060010180546103d290611643565b80601f01602080910402602001604051908101604052809291908181526020018280546103fe90611643565b801561044b5780601f106104205761010080835404028352916020019161044b565b820191906000526020600020905b81548152906001019060200180831161042e57829003601f168201915b50505050600283015460038401546004850154600586015460068701546007880154600889015460099099015497989597949650929460ff80841695610100948590046001600160a01b0316959394828216929104168c565b6001546001600160a01b031633146104d75760405162461bcd60e51b81526004016104ce9061167d565b60405180910390fd5b6003805460ff19169055565b3360009081526006602052604090205461050f5760405162461bcd60e51b81526004016104ce906116bf565b60085460ff16156105525760405162461bcd60e51b815260206004820152600d60248201526c111053c81a5cc81c185d5cd959609a1b60448201526064016104ce565b60006005828154811061056757610567611707565b60009182526020909120600a90910201600581015490915060ff161580156105945750600981015460ff16155b6105e05760405162461bcd60e51b815260206004820152601b60248201527f50726f706f73616c2063616e6e6f74206265206578656375746564000000000060448201526064016104ce565b6009810154610100900460ff166106395760405162461bcd60e51b815260206004820152601d60248201527f50726f706f73616c206d7573742062652071756575656420666972737400000060448201526064016104ce565b806008015442101561068d5760405162461bcd60e51b815260206004820152601960248201527f54696d656c6f636b20706572696f64206e6f7420656e6465640000000000000060448201526064016104ce565b60058101805460ff19166001179081905561010090046001600160a01b0316158015906106be575060008160060154115b1561078d576000546005820154600683015460405163a9059cbb60e01b81526001600160a01b0361010090930483166004820152602481019190915291169063a9059cbb906044016020604051808303816000875af1158015610725573d6000803e3d6000fd5b505050506040513d601f19601f82011682018060405250810190610749919061171d565b61078d5760405162461bcd60e51b8152602060048201526015602482015274151bdad95b881d1c985b9cd9995c8819985a5b1959605a1b60448201526064016104ce565b60405182907f712ae1383f79ac853f8d882153778e0260ef8f03b504e2866e0593e04d2b291f90600090a25050565b60606000805b60055481101561084f57600581815481106107df576107df611707565b600091825260209091206005600a90920201015460ff1615801561082a57506005818154811061081157610811611707565b600091825260209091206009600a90920201015460ff16155b1561083d578161083981611750565b9250505b8061084781611750565b9150506107c2565b5060008167ffffffffffffffff81111561086b5761086b6114ae565b604051908082528060200260200182016040528015610894578160200160208202803683370190505b5090506000805b60055481101561094657600581815481106108b8576108b8611707565b600091825260209091206005600a90920201015460ff161580156109035750600581815481106108ea576108ea611707565b600091825260209091206009600a90920201015460ff16155b15610934578083838151811061091b5761091b611707565b60209081029190910101528161093081611750565b9250505b8061093e81611750565b91505061089b565b50909392505050565b3360009081526006602052604090205461097b5760405162461bcd60e51b81526004016104ce906116bf565b6040805161018081018252858152602081018590526000918101829052606081018290526080810182905260a081018290526001600160a01b03841660c082015260e081018390524261010082015261012081018290526101408101829052610160810182905260058054600181018255925280519091600a027f036b6384b5eca791c62761152d0c79bb0604c104a5fb6f4eb0703f3154bb3db001908190610a2490826117b8565b5060208201516001820190610a3990826117b8565b5060408201516002820155606082015160038201556080820151600482015560a08201516005808301805460c08601516001600160a81b0319909116931515610100600160a81b031916939093176101006001600160a01b03909416840217905560e084015160068401558184015160078401556101208401516008840155610140840151600990930180546101609095015161ffff1990951693151561ff0019169390931793151590910292909217905554610af890600190611878565b7ff5dc0da9afa6d080780a49fd8c680f03d2ddf3c067cd6d0c85360c096644d2d385610b2762093a8042611891565b604051610b359291906118a4565b60405180910390a250505050565b33600090815260066020526040902054610b6f5760405162461bcd60e51b81526004016104ce906116bf565b600060058281548110610b8457610b84611707565b60009182526020909120600a90910201600581015490915060ff16158015610bb15750600981015460ff16155b610bfd5760405162461bcd60e51b815260206004820152601960248201527f50726f706f73616c2063616e6e6f74206265207175657565640000000000000060448201526064016104ce565b62093a808160070154610c109190611891565b4211610c5e5760405162461bcd60e51b815260206004820152601760248201527f566f74696e6720706572696f64206e6f7420656e64656400000000000000000060448201526064016104ce565b8060030154816002015411610cad5760405162461bcd60e51b815260206004820152601560248201527450726f706f73616c20646964206e6f74207061737360581b60448201526064016104ce565b603360045482600201546064610cc391906118c6565b610ccd91906118dd565b1015610d0c5760405162461bcd60e51b815260206004820152600e60248201526d145d5bdc9d5b481b9bdd081b595d60921b60448201526064016104ce565b6009810154610100900460ff1615610d665760405162461bcd60e51b815260206004820152601760248201527f50726f706f73616c20616c72656164792071756575656400000000000000000060448201526064016104ce565b610d736201518042611891565b6008820181905560098201805461ff00191661010017905560405183917f9a2e42fd6722813d69113e7d0079d3d940171428df7373df9c7f7617cfda289291610dbe91815260200190565b60405180910390a25050565b6001546001600160a01b03163314610df45760405162461bcd60e51b81526004016104ce9061167d565b60085460ff16610e3a5760405162461bcd60e51b8152602060048201526011602482015270111053c81a5cc81b9bdd081c185d5cd959607a1b60448201526064016104ce565b6008805460ff1916905560405133907f6c07eca01588ce2ae49dd5192d725f83a09290f1859a357fe41f4a017f86011a90600090a2565b6001546001600160a01b03163314610e9b5760405162461bcd60e51b81526004016104ce9061167d565b60085460ff1615610ee65760405162461bcd60e51b8152602060048201526015602482015274111053c81a5cc8185b1c9958591e481c185d5cd959605a1b60448201526064016104ce565b6008805460ff1916600117905560405133907f6c7be74c368f8fdb27ac241b49c69cf96495cac4908c24051af028dc91957e8890600090a2565b33600090815260066020526040902054610f4c5760405162461bcd60e51b81526004016104ce906116bf565b600060058481548110610f6157610f61611707565b60009182526020808320878452600782526040808520338652909252922054600a909102909101915060ff1615610fda5760405162461bcd60e51b815260206004820152601e60248201527f416c726561647920766f746564206f6e20746869732070726f706f73616c000060448201526064016104ce565b600581015460ff16158015610ff45750600981015460ff16155b6110405760405162461bcd60e51b815260206004820152601b60248201527f50726f706f73616c2063616e6e6f7420626520766f746564206f6e000000000060448201526064016104ce565b62093a8081600701546110539190611891565b4211156110985760405162461bcd60e51b8152602060048201526013602482015272159bdd1a5b99c81c195c9a5bd908195b991959606a1b60448201526064016104ce565b60008481526007602090815260408083203384528252808320805460ff19166001179055600690915290205482156110e957808260040160008282546110de9190611891565b9091555061111d9050565b831561110357808260020160008282546110de9190611891565b808260030160008282546111179190611891565b90915550505b60408051851515815260208101839052869133917f877856338e13f63d0c36822ff0ef736b80934cd90574a3a5bc9262c39d217c46910160405180910390a35050505050565b600081116111b35760405162461bcd60e51b815260206004820152601d60248201527f416d6f756e74206d7573742062652067726561746572207468616e203000000060448201526064016104ce565b60035460ff166112055760405162461bcd60e51b815260206004820152601860248201527f546f6b656e2073616c65206973206e6f7420616374697665000000000000000060448201526064016104ce565b60008160025461121591906118c6565b6000546040516323b872dd60e01b8152336004820152306024820152604481018390529192506001600160a01b0316906323b872dd906064016020604051808303816000875af115801561126d573d6000803e3d6000fd5b505050506040513d601f19601f82011682018060405250810190611291919061171d565b6112cf5760405162461bcd60e51b815260206004820152600f60248201526e151c985b9cd9995c8819985a5b1959608a1b60448201526064016104ce565b33600090815260066020526040812080548492906112ee908490611891565b9250508190555081600460008282546113079190611891565b909155505060405182815233907f303026f7fc6b5fe40cf1b1ca575a6f395b34145669a68563671a5fc8334f341d90602001610dbe565b60006020828403121561135057600080fd5b5035919050565b6000815180845260005b8181101561137d57602081850181015186830182015201611361565b506000602082860101526020601f19601f83011685010191505092915050565b610180815260006113b261018083018f611357565b82810360208401526113c4818f611357565b604084019d909d5250506060810199909952608089019790975294151560a08801526001600160a01b039390931660c087015260e0860191909152610100850152610120840152151561014083015215156101609091015292915050565b6001600160a01b038116811461143757600080fd5b50565b6000806040838503121561144d57600080fd5b82359150602083013561145f81611422565b809150509250929050565b6020808252825182820181905260009190848201906040850190845b818110156114a257835183529284019291840191600101611486565b50909695505050505050565b634e487b7160e01b600052604160045260246000fd5b600082601f8301126114d557600080fd5b813567ffffffffffffffff808211156114f0576114f06114ae565b604051601f8301601f19908116603f01168101908282118183101715611518576115186114ae565b8160405283815286602085880101111561153157600080fd5b836020870160208301376000602085830101528094505050505092915050565b6000806000806080858703121561156757600080fd5b843567ffffffffffffffff8082111561157f57600080fd5b61158b888389016114c4565b955060208701359150808211156115a157600080fd5b506115ae878288016114c4565b93505060408501356115bf81611422565b9396929550929360600135925050565b6000602082840312156115e157600080fd5b81356115ec81611422565b9392505050565b801515811461143757600080fd5b60008060006060848603121561161657600080fd5b833592506020840135611628816115f3565b91506040840135611638816115f3565b809150509250925092565b600181811c9082168061165757607f821691505b60208210810361167757634e487b7160e01b600052602260045260246000fd5b50919050565b60208082526022908201527f4f6e6c792061646d696e2063616e20706572666f726d2074686973206163746960408201526137b760f11b606082015260800190565b60208082526028908201527f4f6e6c792044414f206d656d626572732063616e20706572666f726d20746869604082015267399030b1ba34b7b760c11b606082015260800190565b634e487b7160e01b600052603260045260246000fd5b60006020828403121561172f57600080fd5b81516115ec816115f3565b634e487b7160e01b600052601160045260246000fd5b6000600182016117625761176261173a565b5060010190565b601f8211156117b357600081815260208120601f850160051c810160208610156117905750805b601f850160051c820191505b818110156117af5782815560010161179c565b5050505b505050565b815167ffffffffffffffff8111156117d2576117d26114ae565b6117e6816117e08454611643565b84611769565b602080601f83116001811461181b57600084156118035750858301515b600019600386901b1c1916600185901b1785556117af565b600085815260208120601f198616915b8281101561184a5788860151825594840194600190910190840161182b565b50858210156118685787850151600019600388901b60f8161c191681555b5050505050600190811b01905550565b8181038181111561188b5761188b61173a565b92915050565b8082018082111561188b5761188b61173a565b6040815260006118b76040830185611357565b90508260208301529392505050565b808202811582820484141761188b5761188b61173a565b6000826118fa57634e487b7160e01b600052601260045260246000fd5b50049056fea26469706673582212205a6da2fa6609ff5c3b5ad535ff0af1c6411dc7239ecce81312e45199d2a4f62564736f6c63430008140033",
  "linkReferences": {},
  "deployedLinkReferences": {}
}