{
  "_format": "hh-sol-artifact-1",
  "contractName": "DAOMetra",
  "sourceName": "contracts/DAOMetra.sol",
  "abi": [
    {
      "inputs": [
        {
          "internalType": "address",
          "name": "_token",
          "type": "address"
        },
        {
          "internalType": "uint256",
          "name": "_sharePrice",
          "type": "uint256"
        }
      ],
      "stateMutability": "nonpayable",
      "type": "constructor"
    },
    {
      "anonymous": false,
      "inputs": [
        {
          "indexed": true,
          "internalType": "address",
          "name": "pauser",
          "type": "address"
        }
      ],
      "name": "DAOPaused",
      "type": "event"
    },
    {
      "anonymous": false,
      "inputs": [
        {
          "indexed": true,
          "internalType": "address",
          "name": "unpauser",
          "type": "address"
        }
      ],
      "name": "DAOUnpaused",
      "type": "event"
    },
    {
      "anonymous": false,
      "inputs": [
        {
          "indexed": true,
          "internalType": "uint256",
          "name": "proposalId",
          "type": "uint256"
        },
        {
          "indexed": false,
          "internalType": "string",
          "name": "title",
          "type": "string"
        },
        {
          "indexed": false,
          "internalType": "uint256",
          "name": "endTime",
          "type": "uint256"
        }
      ],
      "name": "ProposalCreated",
      "type": "event"
    },
    {
      "anonymous": false,
      "inputs": [
        {
          "indexed": true,
          "internalType": "uint256",
          "name": "proposalId",
          "type": "uint256"
        }
      ],
      "name": "ProposalExecuted",
      "type": "event"
    },
    {
      "anonymous": false,
      "inputs": [
        {
          "indexed": true,
          "internalType": "uint256",
          "name": "proposalId",
          "type": "uint256"
        }
      ],
      "name": "ProposalExpired",
      "type": "event"
    },
    {
      "anonymous": false,
      "inputs": [
        {
          "indexed": true,
          "internalType": "uint256",
          "name": "proposalId",
          "type": "uint256"
        },
        {
          "indexed": false,
          "internalType": "uint256",
          "name": "executionTime",
          "type": "uint256"
        }
      ],
      "name": "ProposalQueued",
      "type": "event"
    },
    {
      "anonymous": false,
      "inputs": [
        {
          "indexed": true,
          "internalType": "address",
          "name": "buyer",
          "type": "address"
        },
        {
          "indexed": false,
          "internalType": "uint256",
          "name": "amount",
          "type": "uint256"
        }
      ],
      "name": "SharesPurchased",
      "type": "event"
    },
    {
      "anonymous": false,
      "inputs": [
        {
          "indexed": true,
          "internalType": "address",
          "name": "voter",
          "type": "address"
        },
        {
          "indexed": true,
          "internalType": "uint256",
          "name": "proposalId",
          "type": "uint256"
        },
        {
          "indexed": false,
          "internalType": "bool",
          "name": "vote",
          "type": "bool"
        },
        {
          "indexed": false,
          "internalType": "uint256",
          "name": "weight",
          "type": "uint256"
        }
      ],
      "name": "VoteCast",
      "type": "event"
    },
    {
      "inputs": [],
      "name": "TIMELOCK_DELAY",
      "outputs": [
        {
          "internalType": "uint256",
          "name": "",
          "type": "uint256"
        }
      ],
      "stateMutability": "view",
      "type": "function"
    },
    {
      "inputs": [],
      "name": "VOTING_PERIOD",
      "outputs": [
        {
          "internalType": "uint256",
          "name": "",
          "type": "uint256"
        }
      ],
      "stateMutability": "view",
      "type": "function"
    },
    {
      "inputs": [],
      "name": "admin",
      "outputs": [
        {
          "internalType": "address",
          "name": "",
          "type": "address"
        }
      ],
      "stateMutability": "view",
      "type": "function"
    },
    {
      "inputs": [
        {
          "internalType": "string",
          "name": "title",
          "type": "string"
        },
        {
          "internalType": "string",
          "name": "description",
          "type": "string"
        },
        {
          "internalType": "address payable",
          "name": "recipient",
          "type": "address"
        },
        {
          "internalType": "uint256",
          "name": "tokenAmount",
          "type": "uint256"
        }
      ],
      "name": "createProposal",
      "outputs": [],
      "stateMutability": "nonpayable",
      "type": "function"
    },
    {
      "inputs": [],
      "name": "disableSale",
      "outputs": [],
      "stateMutability": "nonpayable",
      "type": "function"
    },
    {
      "inputs": [
        {
          "internalType": "uint256",
          "name": "proposalId",
          "type": "uint256"
        }
      ],
      "name": "executeProposal",
      "outputs": [],
      "stateMutability": "nonpayable",
      "type": "function"
    },
    {
      "inputs": [],
      "name": "getActiveProposals",
      "outputs": [
        {
          "internalType": "uint256[]",
          "name": "",
          "type": "uint256[]"
        }
      ],
      "stateMutability": "view",
      "type": "function"
    },
    {
      "inputs": [
        {
          "internalType": "address",
          "name": "member",
          "type": "address"
        }
      ],
      "name": "getVotingPower",
      "outputs": [
        {
          "internalType": "uint256",
          "name": "",
          "type": "uint256"
        }
      ],
      "stateMutability": "view",
      "type": "function"
    },
    {
      "inputs": [
        {
          "internalType": "uint256",
          "name": "",
          "type": "uint256"
        },
        {
          "internalType": "address",
          "name": "",
          "type": "address"
        }
      ],
      "name": "hasVoted",
      "outputs": [
        {
          "internalType": "bool",
          "name": "",
          "type": "bool"
        }
      ],
      "stateMutability": "view",
      "type": "function"
    },
    {
      "inputs": [],
      "name": "isPaused",
      "outputs": [
        {
          "internalType": "bool",
          "name": "",
          "type": "bool"
        }
      ],
      "stateMutability": "view",
      "type": "function"
    },
    {
      "inputs": [
        {
          "internalType": "uint256",
          "name": "",
          "type": "uint256"
        }
      ],
      "name": "isProposalActive",
      "outputs": [
        {
          "internalType": "bool",
          "name": "",
          "type": "bool"
        }
      ],
      "stateMutability": "view",
      "type": "function"
    },
    {
      "inputs": [],
      "name": "pauseDAO",
      "outputs": [],
      "stateMutability": "nonpayable",
      "type": "function"
    },
    {
      "inputs": [
        {
          "internalType": "uint256",
          "name": "",
          "type": "uint256"
        }
      ],
      "name": "proposals",
      "outputs": [
        {
          "internalType": "string",
          "name": "title",
          "type": "string"
        },
        {
          "internalType": "string",
          "name": "description",
          "type": "string"
        },
        {
          "internalType": "uint256",
          "name": "yesVotes",
          "type": "uint256"
        },
        {
          "internalType": "uint256",
          "name": "noVotes",
          "type": "uint256"
        },
        {
          "internalType": "uint256",
          "name": "abstainVotes",
          "type": "uint256"
        },
        {
          "internalType": "bool",
          "name": "executed",
          "type": "bool"
        },
        {
          "internalType": "address payable",
          "name": "recipient",
          "type": "address"
        },
        {
          "internalType": "uint256",
          "name": "tokenAmount",
          "type": "uint256"
        },
        {
          "internalType": "uint256",
          "name": "createdAt",
          "type": "uint256"
        },
        {
          "internalType": "uint256",
          "name": "executionTime",
          "type": "uint256"
        },
        {
          "internalType": "bool",
          "name": "expired",
          "type": "bool"
        },
        {
          "internalType": "bool",
          "name": "queued",
          "type": "bool"
        }
      ],
      "stateMutability": "view",
      "type": "function"
    },
    {
      "inputs": [
        {
          "internalType": "uint256",
          "name": "amount",
          "type": "uint256"
        }
      ],
      "name": "purchaseShares",
      "outputs": [],
      "stateMutability": "nonpayable",
      "type": "function"
    },
    {
      "inputs": [
        {
          "internalType": "uint256",
          "name": "proposalId",
          "type": "uint256"
        }
      ],
      "name": "queueProposal",
      "outputs": [],
      "stateMutability": "nonpayable",
      "type": "function"
    },
    {
      "inputs": [],
      "name": "saleActive",
      "outputs": [
        {
          "internalType": "bool",
          "name": "",
          "type": "bool"
        }
      ],
      "stateMutability": "view",
      "type": "function"
    },
    {
      "inputs": [],
      "name": "sharePrice",
      "outputs": [
        {
          "internalType": "uint256",
          "name": "",
          "type": "uint256"
        }
      ],
      "stateMutability": "view",
      "type": "function"
    },
    {
      "inputs": [
        {
          "internalType": "address",
          "name": "",
          "type": "address"
        }
      ],
      "name": "shares",
      "outputs": [
        {
          "internalType": "uint256",
          "name": "",
          "type": "uint256"
        }
      ],
      "stateMutability": "view",
      "type": "function"
    },
    {
      "inputs": [],
      "name": "token",
      "outputs": [
        {
          "internalType": "contract DAOMetraToken",
          "name": "",
          "type": "address"
        }
      ],
      "stateMutability": "view",
      "type": "function"
    },
    {
      "inputs": [],
      "name": "totalShares",
      "outputs": [
        {
          "internalType": "uint256",
          "name": "",
          "type": "uint256"
        }
      ],
      "stateMutability": "view",
      "type": "function"
    },
    {
      "inputs": [],
      "name": "unpauseDAO",
      "outputs": [],
      "stateMutability": "nonpayable",
      "type": "function"
    },
    {
      "inputs": [
        {
          "internalType": "uint256",
          "name": "proposalId",
          "type": "uint256"
        },
        {
          "internalType": "bool",
          "name": "support",
          "type": "bool"
        },
        {
          "internalType": "bool",
          "name": "abstain",
          "type": "bool"
        }
      ],
      "name": "vote",
      "outputs": [],
      "stateMutability": "nonpayable",
      "type": "function"
    }
  ],
  "bytecode": "0x608060405234801561001057600080fd5b50604051611ae0380380611ae083398101604081905261002f91610072565b60018054336001600160a01b0319918216178255600080549091166001600160a01b0394909416939093179092556002556003805460ff191690911790556100ac565b6000806040838503121561008557600080fd5b82516001600160a01b038116811461009c57600080fd5b6020939093015192949293505050565b611a25806100bb6000396000f3fe608060405234801561001057600080fd5b50600436106101425760003560e01c806394a14a34116100b8578063bb4d44361161007c578063bb4d443614610292578063ce7c2ac2146102bb578063df133bca146102db578063df48981a146102ee578063f851a44014610301578063fc0c546a1461032c57600080fd5b806394a14a34146102585780639612a7661461026b578063b1610d7e14610273578063b187bd261461027d578063b38435cc1461028a57600080fd5b8063438596321161010a57806343859632146101e25780635584c4f9146102105780635ba1c1a91461022557806368428a1b1461022f5780637cdc2eb71461023c578063872697291461024f57600080fd5b8063013cf08b146101475780630a4740ff1461017b5780630d61b51914610185578063164b3d2f146101985780633a98ef39146101cb575b600080fd5b61015a610155366004611418565b61033f565b6040516101729c9b9a99989796959493929190611477565b60405180910390f35b6101836104d2565b005b610183610193366004611418565b610511565b6101bb6101a6366004611418565b60086020526000908152604090205460ff1681565b6040519015158152602001610172565b6101d460045481565b604051908152602001610172565b6101bb6101f0366004611514565b600760209081526000928352604080842090915290825290205460ff1681565b610218610823565b6040516101729190611544565b6101d46201518081565b6003546101bb9060ff1681565b61018361024a36600461162b565b61087b565b6101d460025481565b610183610266366004611418565b610ab4565b610183610d3b565b6101d462093a8081565b600a546101bb9060ff1681565b610183610de2565b6101d46102a03660046116a9565b6001600160a01b031660009081526006602052604090205490565b6101d46102c93660046116a9565b60066020526000908152604090205481565b6101836102e93660046116db565b610e91565b6101836102fc366004611418565b611181565b600154610314906001600160a01b031681565b6040516001600160a01b039091168152602001610172565b600054610314906001600160a01b031681565b6005818154811061034f57600080fd5b90600052602060002090600a02016000915090508060000180546103729061171d565b80601f016020809104026020016040519081016040528092919081815260200182805461039e9061171d565b80156103eb5780601f106103c0576101008083540402835291602001916103eb565b820191906000526020600020905b8154815290600101906020018083116103ce57829003601f168201915b5050505050908060010180546104009061171d565b80601f016020809104026020016040519081016040528092919081815260200182805461042c9061171d565b80156104795780601f1061044e57610100808354040283529160200191610479565b820191906000526020600020905b81548152906001019060200180831161045c57829003601f168201915b50505050600283015460038401546004850154600586015460068701546007880154600889015460099099015497989597949650929460ff80841695610100948590046001600160a01b0316959394828216929104168c565b6001546001600160a01b031633146105055760405162461bcd60e51b81526004016104fc90611757565b60405180910390fd5b6003805460ff19169055565b3360009081526006602052604090205461053d5760405162461bcd60e51b81526004016104fc90611799565b600a5460ff16156105805760405162461bcd60e51b815260206004820152600d60248201526c111053c81a5cc81c185d5cd959609a1b60448201526064016104fc565b600060058281548110610595576105956117e1565b60009182526020909120600a90910201600581015490915060ff161580156105c25750600981015460ff16155b61060e5760405162461bcd60e51b815260206004820152601b60248201527f50726f706f73616c2063616e6e6f74206265206578656375746564000000000060448201526064016104fc565b6009810154610100900460ff166106675760405162461bcd60e51b815260206004820152601d60248201527f50726f706f73616c206d7573742062652071756575656420666972737400000060448201526064016104fc565b80600801544210156106bb5760405162461bcd60e51b815260206004820152601960248201527f54696d656c6f636b20706572696f64206e6f7420656e6465640000000000000060448201526064016104fc565b60058101805460ff1916600117905560008281526008602052604090205460ff1615610700576000828152600860205260409020805460ff191690556107008261135c565b600581015461010090046001600160a01b031615801590610725575060008160060154115b156107f4576000546005820154600683015460405163a9059cbb60e01b81526001600160a01b0361010090930483166004820152602481019190915291169063a9059cbb906044016020604051808303816000875af115801561078c573d6000803e3d6000fd5b505050506040513d601f19601f820116820180604052508101906107b091906117f7565b6107f45760405162461bcd60e51b8152602060048201526015602482015274151bdad95b881d1c985b9cd9995c8819985a5b1959605a1b60448201526064016104fc565b60405182907f712ae1383f79ac853f8d882153778e0260ef8f03b504e2866e0593e04d2b291f90600090a25050565b6060600980548060200260200160405190810160405280929190818152602001828054801561087157602002820191906000526020600020905b81548152602001906001019080831161085d575b5050505050905090565b336000908152600660205260409020546108a75760405162461bcd60e51b81526004016104fc90611799565b600580546040805161018081018252878152602081018790526000918101829052606081018290526080810182905260a081018290526001600160a01b03861660c082015260e08101859052426101008201526101208101829052610140810182905261016081018290526001830184559290528151909190600a83027f036b6384b5eca791c62761152d0c79bb0604c104a5fb6f4eb0703f3154bb3db0019081906109539082611863565b50602082015160018201906109689082611863565b506040828101516002830155606083015160038301556080830151600483015560a083015160058301805460c08601516001600160a81b0319909116921515610100600160a81b031916929092176101006001600160a01b03909316830217905560e08401516006840155808401516007840155610120840151600880850191909155610140850151600994850180546101609097015161ffff1990971691151561ff0019169190911795151590920294909417905560008481526020939093528220805460ff191660019081179091558154908101825591527f6e1540171b6c0c960b71a7020d9f60077f6af931a8bbf590da0223dacf75c7af01819055807ff5dc0da9afa6d080780a49fd8c680f03d2ddf3c067cd6d0c85360c096644d2d386610a9762093a8042611939565b604051610aa5929190611952565b60405180910390a25050505050565b33600090815260066020526040902054610ae05760405162461bcd60e51b81526004016104fc90611799565b600060058281548110610af557610af56117e1565b60009182526020909120600a90910201600581015490915060ff16158015610b225750600981015460ff16155b610b6e5760405162461bcd60e51b815260206004820152601960248201527f50726f706f73616c2063616e6e6f74206265207175657565640000000000000060448201526064016104fc565b62093a808160070154610b819190611939565b4211610bcf5760405162461bcd60e51b815260206004820152601760248201527f566f74696e6720706572696f64206e6f7420656e64656400000000000000000060448201526064016104fc565b8060030154816002015411610c1e5760405162461bcd60e51b815260206004820152601560248201527450726f706f73616c20646964206e6f74207061737360581b60448201526064016104fc565b603360045482600201546064610c349190611974565b610c3e919061198b565b1015610c7d5760405162461bcd60e51b815260206004820152600e60248201526d145d5bdc9d5b481b9bdd081b595d60921b60448201526064016104fc565b6009810154610100900460ff1615610cd75760405162461bcd60e51b815260206004820152601760248201527f50726f706f73616c20616c72656164792071756575656400000000000000000060448201526064016104fc565b610ce46201518042611939565b6008820181905560098201805461ff00191661010017905560405183917f9a2e42fd6722813d69113e7d0079d3d940171428df7373df9c7f7617cfda289291610d2f91815260200190565b60405180910390a25050565b6001546001600160a01b03163314610d655760405162461bcd60e51b81526004016104fc90611757565b600a5460ff16610dab5760405162461bcd60e51b8152602060048201526011602482015270111053c81a5cc81b9bdd081c185d5cd959607a1b60448201526064016104fc565b600a805460ff1916905560405133907f6c07eca01588ce2ae49dd5192d725f83a09290f1859a357fe41f4a017f86011a90600090a2565b6001546001600160a01b03163314610e0c5760405162461bcd60e51b81526004016104fc90611757565b600a5460ff1615610e575760405162461bcd60e51b8152602060048201526015602482015274111053c81a5cc8185b1c9958591e481c185d5cd959605a1b60448201526064016104fc565b600a805460ff1916600117905560405133907f6c7be74c368f8fdb27ac241b49c69cf96495cac4908c24051af028dc91957e8890600090a2565b33600090815260066020526040902054610ebd5760405162461bcd60e51b81526004016104fc90611799565b600060058481548110610ed257610ed26117e1565b60009182526020808320878452600782526040808520338652909252922054600a909102909101915060ff1615610f4b5760405162461bcd60e51b815260206004820152601e60248201527f416c726561647920766f746564206f6e20746869732070726f706f73616c000060448201526064016104fc565b600581015460ff16158015610f655750600981015460ff16155b610fb15760405162461bcd60e51b815260206004820152601b60248201527f50726f706f73616c2063616e6e6f7420626520766f746564206f6e000000000060448201526064016104fc565b62093a808160070154610fc49190611939565b4211156110095760405162461bcd60e51b8152602060048201526013602482015272159bdd1a5b99c81c195c9a5bd908195b991959606a1b60448201526064016104fc565b8180156110135750825b156110605760405162461bcd60e51b815260206004820152601f60248201527f43616e6e6f7420626f746820737570706f727420616e64206162737461696e0060448201526064016104fc565b818061106a575081155b6110b65760405162461bcd60e51b815260206004820152601960248201527f496e76616c696420766f74696e6720706172616d65746572730000000000000060448201526064016104fc565b60008481526007602090815260408083203384528252808320805460ff191660011790556006909152902054821561110757808260040160008282546110fc9190611939565b9091555061113b9050565b831561112157808260020160008282546110fc9190611939565b808260030160008282546111359190611939565b90915550505b60408051851515815260208101839052869133917f877856338e13f63d0c36822ff0ef736b80934cd90574a3a5bc9262c39d217c46910160405180910390a35050505050565b600081116111d15760405162461bcd60e51b815260206004820152601d60248201527f416d6f756e74206d7573742062652067726561746572207468616e203000000060448201526064016104fc565b60035460ff166112235760405162461bcd60e51b815260206004820152601860248201527f546f6b656e2073616c65206973206e6f7420616374697665000000000000000060448201526064016104fc565b6000816002546112339190611974565b6000546040516323b872dd60e01b8152336004820152306024820152604481018390529192506001600160a01b0316906323b872dd906064016020604051808303816000875af115801561128b573d6000803e3d6000fd5b505050506040513d601f19601f820116820180604052508101906112af91906117f7565b6112ed5760405162461bcd60e51b815260206004820152600f60248201526e151c985b9cd9995c8819985a5b1959608a1b60448201526064016104fc565b336000908152600660205260408120805484929061130c908490611939565b9250508190555081600460008282546113259190611939565b909155505060405182815233907f303026f7fc6b5fe40cf1b1ca575a6f395b34145669a68563671a5fc8334f341d90602001610d2f565b60005b60095481101561141457816009828154811061137d5761137d6117e1565b906000526020600020015403611402576009805461139d906001906119ad565b815481106113ad576113ad6117e1565b9060005260206000200154600982815481106113cb576113cb6117e1565b60009182526020909120015560098054806113e8576113e86119c0565b600190038181906000526020600020016000905590555050565b8061140c816119d6565b91505061135f565b5050565b60006020828403121561142a57600080fd5b5035919050565b6000815180845260005b818110156114575760208185018101518683018201520161143b565b506000602082860101526020601f19601f83011685010191505092915050565b6101808152600061148c61018083018f611431565b828103602084015261149e818f611431565b604084019d909d5250506060810199909952608089019790975294151560a08801526001600160a01b039390931660c087015260e0860191909152610100850152610120840152151561014083015215156101609091015292915050565b6001600160a01b038116811461151157600080fd5b50565b6000806040838503121561152757600080fd5b823591506020830135611539816114fc565b809150509250929050565b6020808252825182820181905260009190848201906040850190845b8181101561157c57835183529284019291840191600101611560565b50909695505050505050565b634e487b7160e01b600052604160045260246000fd5b600082601f8301126115af57600080fd5b813567ffffffffffffffff808211156115ca576115ca611588565b604051601f8301601f19908116603f011681019082821181831017156115f2576115f2611588565b8160405283815286602085880101111561160b57600080fd5b836020870160208301376000602085830101528094505050505092915050565b6000806000806080858703121561164157600080fd5b843567ffffffffffffffff8082111561165957600080fd5b6116658883890161159e565b9550602087013591508082111561167b57600080fd5b506116888782880161159e565b9350506040850135611699816114fc565b9396929550929360600135925050565b6000602082840312156116bb57600080fd5b81356116c6816114fc565b9392505050565b801515811461151157600080fd5b6000806000606084860312156116f057600080fd5b833592506020840135611702816116cd565b91506040840135611712816116cd565b809150509250925092565b600181811c9082168061173157607f821691505b60208210810361175157634e487b7160e01b600052602260045260246000fd5b50919050565b60208082526022908201527f4f6e6c792061646d696e2063616e20706572666f726d2074686973206163746960408201526137b760f11b606082015260800190565b60208082526028908201527f4f6e6c792044414f206d656d626572732063616e20706572666f726d20746869604082015267399030b1ba34b7b760c11b606082015260800190565b634e487b7160e01b600052603260045260246000fd5b60006020828403121561180957600080fd5b81516116c6816116cd565b601f82111561185e57600081815260208120601f850160051c8101602086101561183b5750805b601f850160051c820191505b8181101561185a57828155600101611847565b5050505b505050565b815167ffffffffffffffff81111561187d5761187d611588565b6118918161188b845461171d565b84611814565b602080601f8311600181146118c657600084156118ae5750858301515b600019600386901b1c1916600185901b17855561185a565b600085815260208120601f198616915b828110156118f5578886015182559484019460019091019084016118d6565b50858210156119135787850151600019600388901b60f8161c191681555b5050505050600190811b01905550565b634e487b7160e01b600052601160045260246000fd5b8082018082111561194c5761194c611923565b92915050565b6040815260006119656040830185611431565b90508260208301529392505050565b808202811582820484141761194c5761194c611923565b6000826119a857634e487b7160e01b600052601260045260246000fd5b500490565b8181038181111561194c5761194c611923565b634e487b7160e01b600052603160045260246000fd5b6000600182016119e8576119e8611923565b506001019056fea2646970667358221220b0888c4dbbf23756d00480eca747bcfc71b0a5a08b35c38bcf51dfa95f3fd9b064736f6c63430008140033",
  "linkReferences": {},
  "deployedLinkReferences": {}
}