{
  "_format": "hh-sol-artifact-1",
  "contractName": "DAOMetraToken",
  "sourceName": "contracts/DAOMetraToken.sol",
  "abi": [
    {
      "inputs": [
        {
          "internalType": "uint256",
          "name": "_initialSupply",
          "type": "uint256"
        }
      ],
      "stateMutability": "nonpayable",
      "type": "constructor"
    },
    {
      "anonymous": false,
      "inputs": [
        {
          "indexed": true,
          "internalType": "address",
          "name": "previousAdmin",
          "type": "address"
        },
        {
          "indexed": true,
          "internalType": "address",
          "name": "newAdmin",
          "type": "address"
        }
      ],
      "name": "AdminChanged",
      "type": "event"
    },
    {
      "anonymous": false,
      "inputs": [
        {
          "indexed": true,
          "internalType": "address",
          "name": "owner",
          "type": "address"
        },
        {
          "indexed": true,
          "internalType": "address",
          "name": "spender",
          "type": "address"
        },
        {
          "indexed": false,
          "internalType": "uint256",
          "name": "value",
          "type": "uint256"
        }
      ],
      "name": "Approval",
      "type": "event"
    },
    {
      "anonymous": false,
      "inputs": [
        {
          "indexed": true,
          "internalType": "address",
          "name": "from",
          "type": "address"
        },
        {
          "indexed": true,
          "internalType": "address",
          "name": "to",
          "type": "address"
        },
        {
          "indexed": false,
          "internalType": "uint256",
          "name": "value",
          "type": "uint256"
        }
      ],
      "name": "Transfer",
      "type": "event"
    },
    {
      "inputs": [],
      "name": "admin",
      "outputs": [
        {
          "internalType": "address",
          "name": "",
          "type": "address"
        }
      ],
      "stateMutability": "view",
      "type": "function"
    },
    {
      "inputs": [
        {
          "internalType": "address",
          "name": "",
          "type": "address"
        },
        {
          "internalType": "address",
          "name": "",
          "type": "address"
        }
      ],
      "name": "allowance",
      "outputs": [
        {
          "internalType": "uint256",
          "name": "",
          "type": "uint256"
        }
      ],
      "stateMutability": "view",
      "type": "function"
    },
    {
      "inputs": [
        {
          "internalType": "address",
          "name": "spender",
          "type": "address"
        },
        {
          "internalType": "uint256",
          "name": "value",
          "type": "uint256"
        }
      ],
      "name": "approve",
      "outputs": [
        {
          "internalType": "bool",
          "name": "",
          "type": "bool"
        }
      ],
      "stateMutability": "nonpayable",
      "type": "function"
    },
    {
      "inputs": [
        {
          "internalType": "address",
          "name": "",
          "type": "address"
        }
      ],
      "name": "balanceOf",
      "outputs": [
        {
          "internalType": "uint256",
          "name": "",
          "type": "uint256"
        }
      ],
      "stateMutability": "view",
      "type": "function"
    },
    {
      "inputs": [],
      "name": "decimals",
      "outputs": [
        {
          "internalType": "uint8",
          "name": "",
          "type": "uint8"
        }
      ],
      "stateMutability": "view",
      "type": "function"
    },
    {
      "inputs": [],
      "name": "name",
      "outputs": [
        {
          "internalType": "string",
          "name": "",
          "type": "string"
        }
      ],
      "stateMutability": "view",
      "type": "function"
    },
    {
      "inputs": [
        {
          "internalType": "address",
          "name": "daoAddress",
          "type": "address"
        }
      ],
      "name": "setDAOAsAdmin",
      "outputs": [],
      "stateMutability": "nonpayable",
      "type": "function"
    },
    {
      "inputs": [],
      "name": "symbol",
      "outputs": [
        {
          "internalType": "string",
          "name": "",
          "type": "string"
        }
      ],
      "stateMutability": "view",
      "type": "function"
    },
    {
      "inputs": [],
      "name": "totalSupply",
      "outputs": [
        {
          "internalType": "uint256",
          "name": "",
          "type": "uint256"
        }
      ],
      "stateMutability": "view",
      "type": "function"
    },
    {
      "inputs": [
        {
          "internalType": "address",
          "name": "to",
          "type": "address"
        },
        {
          "internalType": "uint256",
          "name": "value",
          "type": "uint256"
        }
      ],
      "name": "transfer",
      "outputs": [
        {
          "internalType": "bool",
          "name": "",
          "type": "bool"
        }
      ],
      "stateMutability": "nonpayable",
      "type": "function"
    },
    {
      "inputs": [
        {
          "internalType": "address",
          "name": "from",
          "type": "address"
        },
        {
          "internalType": "address",
          "name": "to",
          "type": "address"
        },
        {
          "internalType": "uint256",
          "name": "value",
          "type": "uint256"
        }
      ],
      "name": "transferFrom",
      "outputs": [
        {
          "internalType": "bool",
          "name": "",
          "type": "bool"
        }
      ],
      "stateMutability": "nonpayable",
      "type": "function"
    }
  ],
  "bytecode": "0x60c060405260086080908152672232b6ba37b5b2b760c11b60a052600090620000299082620001a3565b50604080518082019091526004815263444d544b60e01b6020820152600190620000549082620001a3565b506002805460ff191660121790553480156200006f57600080fd5b5060405162000bf938038062000bf983398101604081905262000092916200026f565b600680546001600160a01b031916339081179091556003829055600081815260046020526040808220849055517fddf252ad1be2c89b69c2b068fc378daa952ba7f163c4a11628f55a4df523b3ef90620000ef9085815260200190565b60405180910390a35062000289565b634e487b7160e01b600052604160045260246000fd5b600181811c908216806200012957607f821691505b6020821081036200014a57634e487b7160e01b600052602260045260246000fd5b50919050565b601f8211156200019e57600081815260208120601f850160051c81016020861015620001795750805b601f850160051c820191505b818110156200019a5782815560010162000185565b5050505b505050565b81516001600160401b03811115620001bf57620001bf620000fe565b620001d781620001d0845462000114565b8462000150565b602080601f8311600181146200020f5760008415620001f65750858301515b600019600386901b1c1916600185901b1785556200019a565b600085815260208120601f198616915b8281101562000240578886015182559484019460019091019084016200021f565b50858210156200025f5787850151600019600388901b60f8161c191681555b5050505050600190811b01905550565b6000602082840312156200028257600080fd5b5051919050565b61096080620002996000396000f3fe608060405234801561001057600080fd5b50600436106100a95760003560e01c806348ba3f931161007157806348ba3f931461013857806370a082311461014d57806395d89b411461016d578063a9059cbb14610175578063dd62ed3e14610188578063f851a440146101b357600080fd5b806306fdde03146100ae578063095ea7b3146100cc57806318160ddd146100ef57806323b872dd14610106578063313ce56714610119575b600080fd5b6100b66101de565b6040516100c3919061078f565b60405180910390f35b6100df6100da3660046107f9565b61026c565b60405190151581526020016100c3565b6100f860035481565b6040519081526020016100c3565b6100df610114366004610823565b61032f565b6002546101269060ff1681565b60405160ff90911681526020016100c3565b61014b61014636600461085f565b61053b565b005b6100f861015b36600461085f565b60046020526000908152604090205481565b6100b6610648565b6100df6101833660046107f9565b610655565b6100f8610196366004610881565b600560209081526000928352604080842090915290825290205481565b6006546101c6906001600160a01b031681565b6040516001600160a01b0390911681526020016100c3565b600080546101eb906108b4565b80601f0160208091040260200160405190810160405280929190818152602001828054610217906108b4565b80156102645780601f1061023957610100808354040283529160200191610264565b820191906000526020600020905b81548152906001019060200180831161024757829003601f168201915b505050505081565b60006001600160a01b0383166102c95760405162461bcd60e51b815260206004820152601b60248201527f43616e6e6f7420617070726f7665207a65726f2061646472657373000000000060448201526064015b60405180910390fd5b3360008181526005602090815260408083206001600160a01b03881680855290835292819020869055518581529192917f8c5be1e5ebec7d5bd14f71427d1e84f3dd0314c0f7b2291e5b200ac8c7c3b92591015b60405180910390a35060015b92915050565b6001600160a01b03831660009081526004602052604081205482111561038e5760405162461bcd60e51b8152602060048201526014602482015273496e73756666696369656e742062616c616e636560601b60448201526064016102c0565b6001600160a01b03841660009081526005602090815260408083203384529091529020548211156103fa5760405162461bcd60e51b8152602060048201526016602482015275496e73756666696369656e7420616c6c6f77616e636560501b60448201526064016102c0565b6001600160a01b0383166104505760405162461bcd60e51b815260206004820152601f60248201527f43616e6e6f74207472616e7366657220746f207a65726f20616464726573730060448201526064016102c0565b6001600160a01b03841660009081526004602052604081208054849290610478908490610904565b90915550506001600160a01b038316600090815260046020526040812080548492906104a5908490610917565b90915550506001600160a01b0384166000908152600560209081526040808320338452909152812080548492906104dd908490610904565b92505081905550826001600160a01b0316846001600160a01b03167fddf252ad1be2c89b69c2b068fc378daa952ba7f163c4a11628f55a4df523b3ef8460405161052991815260200190565b60405180910390a35060019392505050565b6006546001600160a01b031633146105a05760405162461bcd60e51b815260206004820152602260248201527f4f6e6c792061646d696e2063616e20706572666f726d2074686973206163746960448201526137b760f11b60648201526084016102c0565b6001600160a01b0381166105f65760405162461bcd60e51b815260206004820181905260248201527f43616e6e6f7420736574207a65726f20616464726573732061732061646d696e60448201526064016102c0565b600680546001600160a01b038381166001600160a01b0319831681179093556040519116919082907f7e644d79422f17c01e4894b5f4f588d331ebfa28653d42ae832dc59e38c9798f90600090a35050565b600180546101eb906108b4565b336000908152600460205260408120548211156106ab5760405162461bcd60e51b8152602060048201526014602482015273496e73756666696369656e742062616c616e636560601b60448201526064016102c0565b6001600160a01b0383166107015760405162461bcd60e51b815260206004820152601f60248201527f43616e6e6f74207472616e7366657220746f207a65726f20616464726573730060448201526064016102c0565b3360009081526004602052604081208054849290610720908490610904565b90915550506001600160a01b0383166000908152600460205260408120805484929061074d908490610917565b90915550506040518281526001600160a01b0384169033907fddf252ad1be2c89b69c2b068fc378daa952ba7f163c4a11628f55a4df523b3ef9060200161031d565b600060208083528351808285015260005b818110156107bc578581018301518582016040015282016107a0565b506000604082860101526040601f19601f8301168501019250505092915050565b80356001600160a01b03811681146107f457600080fd5b919050565b6000806040838503121561080c57600080fd5b610815836107dd565b946020939093013593505050565b60008060006060848603121561083857600080fd5b610841846107dd565b925061084f602085016107dd565b9150604084013590509250925092565b60006020828403121561087157600080fd5b61087a826107dd565b9392505050565b6000806040838503121561089457600080fd5b61089d836107dd565b91506108ab602084016107dd565b90509250929050565b600181811c908216806108c857607f821691505b6020821081036108e857634e487b7160e01b600052602260045260246000fd5b50919050565b634e487b7160e01b600052601160045260246000fd5b81810381811115610329576103296108ee565b80820180821115610329576103296108ee56fea2646970667358221220835eb71a66213c5ba4346564ee17890f8993d3d6728b19622df2e5e33fd3bacc64736f6c63430008140033",
  "linkReferences": {},
  "deployedLinkReferences": {}
}