{
  "_format": "hh-sol-artifact-1",
  "contractName": "DAOMetraToken",
  "sourceName": "contracts/DAOMetraToken.sol",
  "abi": [
    {
      "inputs": [
        {
          "internalType": "uint256",
          "name": "_initialSupply",
          "type": "uint256"
        }
      ],
      "stateMutability": "nonpayable",
      "type": "constructor"
    },
    {
      "anonymous": false,
      "inputs": [
        {
          "indexed": true,
          "internalType": "address",
          "name": "previousAdmin",
          "type": "address"
        },
        {
          "indexed": true,
          "internalType": "address",
          "name": "newAdmin",
          "type": "address"
        }
      ],
      "name": "AdminChanged",
      "type": "event"
    },
    {
      "anonymous": false,
      "inputs": [
        {
          "indexed": true,
          "internalType": "address",
          "name": "owner",
          "type": "address"
        },
        {
          "indexed": true,
          "internalType": "address",
          "name": "spender",
          "type": "address"
        },
        {
          "indexed": false,
          "internalType": "uint256",
          "name": "value",
          "type": "uint256"
        }
      ],
      "name": "Approval",
      "type": "event"
    },
    {
      "anonymous": false,
      "inputs": [
        {
          "indexed": true,
          "internalType": "address",
          "name": "from",
          "type": "address"
        },
        {
          "indexed": true,
          "internalType": "address",
          "name": "to",
          "type": "address"
        },
        {
          "indexed": false,
          "internalType": "uint256",
          "name": "value",
          "type": "uint256"
        }
      ],
      "name": "Transfer",
      "type": "event"
    },
    {
      "inputs": [],
      "name": "admin",
      "outputs": [
        {
          "internalType": "address",
          "name": "",
          "type": "address"
        }
      ],
      "stateMutability": "view",
      "type": "function"
    },
    {
      "inputs": [
        {
          "internalType": "address",
          "name": "",
          "type": "address"
        },
        {
          "internalType": "address",
          "name": "",
          "type": "address"
        }
      ],
      "name": "allowance",
      "outputs": [
        {
          "internalType": "uint256",
          "name": "",
          "type": "uint256"
        }
      ],
      "stateMutability": "view",
      "type": "function"
    },
    {
      "inputs": [
        {
          "internalType": "address",
          "name": "spender",
          "type": "address"
        },
        {
          "internalType": "uint256",
          "name": "value",
          "type": "uint256"
        }
      ],
      "name": "approve",
      "outputs": [
        {
          "internalType": "bool",
          "name": "",
          "type": "bool"
        }
      ],
      "stateMutability": "nonpayable",
      "type": "function"
    },
    {
      "inputs": [
        {
          "internalType": "address",
          "name": "",
          "type": "address"
        }
      ],
      "name": "balanceOf",
      "outputs": [
        {
          "internalType": "uint256",
          "name": "",
          "type": "uint256"
        }
      ],
      "stateMutability": "view",
      "type": "function"
    },
    {
      "inputs": [
        {
          "internalType": "address",
          "name": "from",
          "type": "address"
        },
        {
          "internalType": "uint256",
          "name": "amount",
          "type": "uint256"
        }
      ],
      "name": "burn",
      "outputs": [],
      "stateMutability": "nonpayable",
      "type": "function"
    },
    {
      "inputs": [],
      "name": "decimals",
      "outputs": [
        {
          "internalType": "uint8",
          "name": "",
          "type": "uint8"
        }
      ],
      "stateMutability": "view",
      "type": "function"
    },
    {
      "inputs": [
        {
          "internalType": "address",
          "name": "to",
          "type": "address"
        },
        {
          "internalType": "uint256",
          "name": "amount",
          "type": "uint256"
        }
      ],
      "name": "mint",
      "outputs": [],
      "stateMutability": "nonpayable",
      "type": "function"
    },
    {
      "inputs": [],
      "name": "name",
      "outputs": [
        {
          "internalType": "string",
          "name": "",
          "type": "string"
        }
      ],
      "stateMutability": "view",
      "type": "function"
    },
    {
      "inputs": [
        {
          "internalType": "address",
          "name": "daoAddress",
          "type": "address"
        }
      ],
      "name": "setDAOAsAdmin",
      "outputs": [],
      "stateMutability": "nonpayable",
      "type": "function"
    },
    {
      "inputs": [],
      "name": "symbol",
      "outputs": [
        {
          "internalType": "string",
          "name": "",
          "type": "string"
        }
      ],
      "stateMutability": "view",
      "type": "function"
    },
    {
      "inputs": [],
      "name": "totalSupply",
      "outputs": [
        {
          "internalType": "uint256",
          "name": "",
          "type": "uint256"
        }
      ],
      "stateMutability": "view",
      "type": "function"
    },
    {
      "inputs": [
        {
          "internalType": "address",
          "name": "to",
          "type": "address"
        },
        {
          "internalType": "uint256",
          "name": "value",
          "type": "uint256"
        }
      ],
      "name": "transfer",
      "outputs": [
        {
          "internalType": "bool",
          "name": "",
          "type": "bool"
        }
      ],
      "stateMutability": "nonpayable",
      "type": "function"
    },
    {
      "inputs": [
        {
          "internalType": "address",
          "name": "from",
          "type": "address"
        },
        {
          "internalType": "address",
          "name": "to",
          "type": "address"
        },
        {
          "internalType": "uint256",
          "name": "value",
          "type": "uint256"
        }
      ],
      "name": "transferFrom",
      "outputs": [
        {
          "internalType": "bool",
          "name": "",
          "type": "bool"
        }
      ],
      "stateMutability": "nonpayable",
      "type": "function"
    }
  ],
  "bytecode": "0x60c060405260086080908152672232b6ba37b5b2b760c11b60a052600090620000299082620001a3565b50604080518082019091526004815263444d544b60e01b6020820152600190620000549082620001a3565b506002805460ff191660121790553480156200006f57600080fd5b5060405162000f3a38038062000f3a83398101604081905262000092916200026f565b600680546001600160a01b031916339081179091556003829055600081815260046020526040808220849055517fddf252ad1be2c89b69c2b068fc378daa952ba7f163c4a11628f55a4df523b3ef90620000ef9085815260200190565b60405180910390a35062000289565b634e487b7160e01b600052604160045260246000fd5b600181811c908216806200012957607f821691505b6020821081036200014a57634e487b7160e01b600052602260045260246000fd5b50919050565b601f8211156200019e57600081815260208120601f850160051c81016020861015620001795750805b601f850160051c820191505b818110156200019a5782815560010162000185565b5050505b505050565b81516001600160401b03811115620001bf57620001bf620000fe565b620001d781620001d0845462000114565b8462000150565b602080601f8311600181146200020f5760008415620001f65750858301515b600019600386901b1c1916600185901b1785556200019a565b600085815260208120601f198616915b8281101562000240578886015182559484019460019091019084016200021f565b50858210156200025f5787850151600019600388901b60f8161c191681555b5050505050600190811b01905550565b6000602082840312156200028257600080fd5b5051919050565b610ca180620002996000396000f3fe608060405234801561001057600080fd5b50600436106100cf5760003560e01c806348ba3f931161008c5780639dc29fac116100665780639dc29fac146101ae578063a9059cbb146101c1578063dd62ed3e146101d4578063f851a440146101ff57600080fd5b806348ba3f931461017357806370a082311461018657806395d89b41146101a657600080fd5b806306fdde03146100d4578063095ea7b3146100f257806318160ddd1461011557806323b872dd1461012c578063313ce5671461013f57806340c10f191461015e575b600080fd5b6100dc61022a565b6040516100e99190610a6e565b60405180910390f35b610105610100366004610ad8565b6102b8565b60405190151581526020016100e9565b61011e60035481565b6040519081526020016100e9565b61010561013a366004610b02565b61037b565b60025461014c9060ff1681565b60405160ff90911681526020016100e9565b61017161016c366004610ad8565b610575565b005b610171610181366004610b3e565b6106bd565b61011e610194366004610b3e565b60046020526000908152604090205481565b6100dc61078f565b6101716101bc366004610ad8565b61079c565b6101056101cf366004610ad8565b610946565b61011e6101e2366004610b60565b600560209081526000928352604080842090915290825290205481565b600654610212906001600160a01b031681565b6040516001600160a01b0390911681526020016100e9565b6000805461023790610b93565b80601f016020809104026020016040519081016040528092919081815260200182805461026390610b93565b80156102b05780601f10610285576101008083540402835291602001916102b0565b820191906000526020600020905b81548152906001019060200180831161029357829003601f168201915b505050505081565b60006001600160a01b0383166103155760405162461bcd60e51b815260206004820152601b60248201527f43616e6e6f7420617070726f7665207a65726f2061646472657373000000000060448201526064015b60405180910390fd5b3360008181526005602090815260408083206001600160a01b03881680855290835292819020869055518581529192917f8c5be1e5ebec7d5bd14f71427d1e84f3dd0314c0f7b2291e5b200ac8c7c3b92591015b60405180910390a35060015b92915050565b6001600160a01b0383166000908152600460205260408120548211156103da5760405162461bcd60e51b8152602060048201526014602482015273496e73756666696369656e742062616c616e636560601b604482015260640161030c565b6001600160a01b03841660009081526005602090815260408083203384529091529020548211156104465760405162461bcd60e51b8152602060048201526016602482015275496e73756666696369656e7420616c6c6f77616e636560501b604482015260640161030c565b6001600160a01b03831661049c5760405162461bcd60e51b815260206004820152601f60248201527f43616e6e6f74207472616e7366657220746f207a65726f206164647265737300604482015260640161030c565b6001600160a01b038416600090815260046020526040812080548492906104c4908490610be3565b90915550506001600160a01b038316600090815260046020526040812080548492906104f1908490610bf6565b90915550506001600160a01b038416600090815260056020908152604080832033845290915281208054849290610529908490610be3565b92505081905550826001600160a01b0316846001600160a01b0316600080516020610c4c8339815191528460405161056391815260200190565b60405180910390a35060019392505050565b6006546001600160a01b0316331461059f5760405162461bcd60e51b815260040161030c90610c09565b6001600160a01b0382166105f55760405162461bcd60e51b815260206004820152601b60248201527f43616e6e6f74206d696e7420746f207a65726f20616464726573730000000000604482015260640161030c565b600081116106455760405162461bcd60e51b815260206004820152601d60248201527f416d6f756e74206d7573742062652067726561746572207468616e2030000000604482015260640161030c565b80600360008282546106579190610bf6565b90915550506001600160a01b03821660009081526004602052604081208054839290610684908490610bf6565b90915550506040518181526001600160a01b03831690600090600080516020610c4c833981519152906020015b60405180910390a35050565b6006546001600160a01b031633146106e75760405162461bcd60e51b815260040161030c90610c09565b6001600160a01b03811661073d5760405162461bcd60e51b815260206004820181905260248201527f43616e6e6f7420736574207a65726f20616464726573732061732061646d696e604482015260640161030c565b600680546001600160a01b038381166001600160a01b0319831681179093556040519116919082907f7e644d79422f17c01e4894b5f4f588d331ebfa28653d42ae832dc59e38c9798f90600090a35050565b6001805461023790610b93565b6006546001600160a01b031633146107c65760405162461bcd60e51b815260040161030c90610c09565b6001600160a01b03821661081c5760405162461bcd60e51b815260206004820152601d60248201527f43616e6e6f74206275726e2066726f6d207a65726f2061646472657373000000604482015260640161030c565b6000811161086c5760405162461bcd60e51b815260206004820152601d60248201527f416d6f756e74206d7573742062652067726561746572207468616e2030000000604482015260640161030c565b6001600160a01b0382166000908152600460205260409020548111156108d45760405162461bcd60e51b815260206004820152601b60248201527f4275726e20616d6f756e7420657863656564732062616c616e63650000000000604482015260640161030c565b6001600160a01b038216600090815260046020526040812080548392906108fc908490610be3565b9250508190555080600360008282546109159190610be3565b90915550506040518181526000906001600160a01b03841690600080516020610c4c833981519152906020016106b1565b3360009081526004602052604081205482111561099c5760405162461bcd60e51b8152602060048201526014602482015273496e73756666696369656e742062616c616e636560601b604482015260640161030c565b6001600160a01b0383166109f25760405162461bcd60e51b815260206004820152601f60248201527f43616e6e6f74207472616e7366657220746f207a65726f206164647265737300604482015260640161030c565b3360009081526004602052604081208054849290610a11908490610be3565b90915550506001600160a01b03831660009081526004602052604081208054849290610a3e908490610bf6565b90915550506040518281526001600160a01b038416903390600080516020610c4c83398151915290602001610369565b600060208083528351808285015260005b81811015610a9b57858101830151858201604001528201610a7f565b506000604082860101526040601f19601f8301168501019250505092915050565b80356001600160a01b0381168114610ad357600080fd5b919050565b60008060408385031215610aeb57600080fd5b610af483610abc565b946020939093013593505050565b600080600060608486031215610b1757600080fd5b610b2084610abc565b9250610b2e60208501610abc565b9150604084013590509250925092565b600060208284031215610b5057600080fd5b610b5982610abc565b9392505050565b60008060408385031215610b7357600080fd5b610b7c83610abc565b9150610b8a60208401610abc565b90509250929050565b600181811c90821680610ba757607f821691505b602082108103610bc757634e487b7160e01b600052602260045260246000fd5b50919050565b634e487b7160e01b600052601160045260246000fd5b8181038181111561037557610375610bcd565b8082018082111561037557610375610bcd565b60208082526022908201527f4f6e6c792061646d696e2063616e20706572666f726d2074686973206163746960408201526137b760f11b60608201526080019056feddf252ad1be2c89b69c2b068fc378daa952ba7f163c4a11628f55a4df523b3efa2646970667358221220365a98bd10cdac7dc6ba1c4c2de88b2f7e311310e12a6d76f4ed6c7e9fc8b19264736f6c63430008140033",
  "linkReferences": {},
  "deployedLinkReferences": {}
}